:020000040800F2
:1000000098020020850C0008210300082303000843
:10001000270300082B0300082F030008000000003E
:100020000000000000000000000000003303000892
:1000300035030008000000003703000839030008FA
:100040009B0C00089B0C00089B0C00089B0C0008F4
:100050009B0C00089B0C00089B0C00089B0C0008E4
:100060009B0C00082B0800084B0800089B0C00089C
:100070009B0C00089B0C00089B0C00089B0C0008C4
:100080009B0C00089B0C00089B0C00089B0C0008B4
:100090009B0C00089B0C00089B0C00089B0C0008A4
:1000A0009B0C00089B0C00089B0C00089B0C000894
:1000B0009B0C00089B0C00089B0C00089B0C000884
:1000C0009B0C00089B0C00089B0C00089B0C000874
:1000D0009B0C00089B0C00089B0C00089B0C000864
:1000E0009B0C00089B0C00089B0C000800F002F819
:1000F00000F03FF80AA090E8000C82448344AAF183
:100100000107DA4501D100F034F8AFF2090EBAE880
:100110000F0013F0010F18BFFB1A43F0010318473B
:10012000581C0000781C0000103A24BF78C878C121
:10013000FAD8520724BF30C830C144BF04680C60ED
:10014000704700000023002400250026103A28BF35
:1001500078C1FBD8520728BF30C148BF0B60704739
:10016000782901F05F84002070471FB51FBD10B5CE
:1001700010BD01F0ABFD1146FFF7F7FF00F008F8E6
:1001800001F0C9FD03B4FFF7F2FF03BC00F01AFD54
:1001900000F043F9002211464FF4E13000F021FD58
:1001A0002EA001F00BFC3BA001F008FC3DA001F0EB
:1001B00005FC00F09DFC00F0C9F900F001FB0021F6
:1001C000084600F08BFB0121084600F087FB012266
:1001D000FF21104600F0AEFB0322FF21012000F0BA
:1001E000E7FB012000F02BFC0446214635A001F07E
:1001F000E5FB31E039A001F0E1FBFF21002000F038
:1002000036FC3B480078012809D100F020FC044668
:10021000214638A001F0D2FB0020354908704FF488
:100220007A7000F0A2FC39A001F0C8FB002108465A
:1002300000F01DFC2E480078012809D100F007FCD1
:10024000044621462BA001F0B9FB00202849087084
:100250004FF47A7000F089FCCCE700000D0A2D2DD8
:100260002D2D2D2D2D2D2D2D204D43503233303160
:100270003720494F20457870616E73696F6E204D4D
:100280006F64756C65202D2D2D2D2D2D2D2D2D2D73
:100290000D0A000053544D33324631303343385445
:1002A0003620000056312E302E30204275696C64A5
:1002B00020323032322F31312F32392030393A3238
:1002C000320D0A00494E5443415020504F525420A1
:1002D000423A253032780D0A00000000706F7274C7
:1002E0002041206F7570757420686967680D0A0079
:1002F00015000020495352207265616420706F72AE
:100300007420423A253032780D0A0000706F727402
:100310002041206F75707574206C6F770D0A000096
:10032000704700BFFEE700BFFEE700BFFEE700BF6B
:10033000FEE7704770477047704700000CB500201B
:10034000019000906C48006840F480306A49086071
:1003500000BF6948006800F4003000900198401C1C
:100360000190009818B90198B0F5A06FF1D16248DA
:10037000006800F4003010B10120009001E000207E
:1003800000900098012843D15C48006840F01000BC
:100390005A4908600846006820F0030008600846D3
:1003A000006840F0020008605348406852494860C5
:1003B0000846406848600846406840F480604860ED
:1003C0000846406820F47C1048600846406840F4C5
:1003D000E81048600846006840F08070086000BF80
:1003E0004548006800F000700028F9D04248406895
:1003F00020F00300404948600846406840F0020091
:10040000486000BF3C48406800F00C000828F9D163
:100410000CBD10B5FFF792FF10BD10B5364800684F
:1004200040F00100344908600846406834490840FB
:100430003149486008460068324908402E49086042
:100440000846006820F4802008600846406820F4D0
:10045000FE0048604FF41F008860FFF7DAFF4FF09E
:1004600000602949086010BD10B50021002000225D
:10047000214B5B6803F00C0121B1042906D0082947
:1004800028D107E0214B224C236027E01F4B204C52
:10049000236023E0184B5B6803F47010164B5B6815
:1004A00003F48032022303EB904022B9194B4343FB
:1004B000174C23600DE0104B5B6803F4003323B14D
:1004C000144B4343124C236003E0104B4343104C46
:1004D000236003E00D4B0E4C236000BF00BF064BB2
:1004E0005B68C3F303130C4CE15C094B1B68CB4006
:1004F000074C236010BD00000010024000200240A5
:100500000000FFF8FFFFF6FE08ED00E000127A00A1
:100510000000002000093D000400002008B5012172
:10052000082001F0E5F90121064800F064FD1820DB
:10053000ADF8000048208DF803006946024800F03D
:1005400089FC08BD00023000000C0140964880691B
:1005500040F0080094498861944800689449084034
:100560009249086008460068924908438F4908602C
:100570008E480830006840F440608C4908310860BB
:10058000704710B58948006820F4704087490860BA
:100590000846006840F44050086000208649086022
:1005A00001208649C1F8AC0183490860022000F0AF
:1005B000B8FA00208149C1F8AC01022000F0B1FA7C
:1005C00000207D49086010BD10B57848006820F40F
:1005D0007040764908600846006840F44050086062
:1005E0000020754908607549C1F8AC01022000F08F
:1005F00098FA012070490860022000F092FA012068
:100600006E49C1F8AC01022000F08BFA00206A4963
:10061000086010BD10B500246448006820F47040E4
:10062000624908600846006840F400400860012004
:100630006149091D086000F074FA01205F49C1F8A2
:10064000A80100F06EFA07E0601CC4B2FA2C03DDCA
:10065000FFF7BAFF012010BD57487C38006800281A
:10066000F2D15549086000BFF5E710B500205249A6
:1006700008604E48006820F470404C490860084605
:10068000006840F44050086000204C49C1F8AC01BB
:10069000022000F046FA012047490860022000F0DD
:1006A00040FA00204549C1F8A80110BD10B500204E
:1006B000414908603D48006820F470403B490860AB
:1006C0000846006840F44050086001203B49C1F8EA
:1006D000AC01022000F025FA012037490860022011
:1006E00000F01FFA00203549C1F8A80110BD70B50F
:1006F00004462E48006820F470402C4908600846E3
:10070000006840F44050086000202B490860002534
:1007100017E0E0092849091D08606006040E022060
:1007200000F0FFF901202549C1F8A801022000F0DE
:10073000F8F9002020490860022000F0F2F9681C56
:10074000C5B2082DE5DB70BD70B50546002417481D
:10075000006820F47040154908600846006840F4BD
:1007600000400860002614E001201349086000F0F2
:10077000D8F96006040E1148D0F82C0108B144F0F5
:10078000010400200C490860012000F0CAF9701C27
:10079000C6B2082EE8DB15B9FFF788FF01E0FFF7C6
:1007A00064FF204670BD000000100240040C0140B0
:1007B000FF00F0FF00330300A881214200802142A6
:1007C0000EB5FFF7ABFE0121084601F091F80321B9
:1007D000012000F055FC0421012000F051FC1820FC
:1007E000019000208DF808000C208DF8090001A868
:1007F00000F090FE09208DF8000001208DF8010026
:100800008DF802008DF80300684600F05AFA0A20BD
:100810008DF8000001208DF801008DF802008DF8A0
:100820000300684600F04DFA0EBD10B5082000F038
:10083000D7FE012808D10D48007810B901200B49D6
:100840000870082000F0DDFE10BD10B5102000F08B
:10085000C7FE012808D10648007810B901200449D4
:100860000870102000F0CDFE10BD00001400002024
:100870001500002070B505460C46FFF782FE4E209D
:10088000FFF735FFFFF7C6FE2846FFF730FFFFF7FB
:10089000C1FE2046FFF72BFFFFF7BCFEFFF794FEDB
:1008A00070BD70B50446FFF76CFE4E20FFF71FFFCA
:1008B000FFF7B0FE2046FFF71AFFFFF7ABFEFFF78A
:1008C00060FE4F20FFF713FFFFF7A4FE0020FFF7A5
:1008D0003BFF0546FFF778FE284670BD70B504461D
:1008E0000D46012D04D1E0B2FF21FFF7C3FF04E064
:1008F0001DB9E0B20021FFF7BDFF70BD2DE9F04149
:1009000004460D461646E0B2FFF7CBFF0746012E20
:1009100001D12F4308E00EB9AF4305E065A001F017
:100920004DF80120BDE8F081E0B23946FFF7A2FFA3
:100930000020F7E72DE9F04104460D46164604F184
:100940000C01C8B2FFF7ADFF0746012E01D12F43BE
:1009500008E00EB9AF4305E05AA001F02FF80120DE
:10096000BDE8F08104F10C01C8B23946FFF782FFFF
:100970000020F5E72DE9F04104460D461646A11C7E
:10098000C8B2FFF78EFF0746012E01D12F4308E0C2
:100990000EB9AF4305E050A001F010F80120BDE80A
:1009A000F081A11CC8B23946FFF764FF0020F6E7CA
:1009B0002DE9F04705460C461646291DC8B2FFF73B
:1009C00070FF0746A91DC8B2FFF76BFF814605F10E
:1009D0000801C8B2FFF765FF80460EB9A74314E0CF
:1009E000012E05D1274329EA040948EA04080CE04E
:1009F000022E05D1274349EA040948EA040804E025
:100A0000032E02D1274328EA0408291DC8B239461B
:100A1000FFF730FFA91DC8B24946FFF72BFF05F1CC
:100A20000801C8B24146FFF725FFBDE8F08710B5C1
:100A3000044604F10E01C8B2FFF733FF10BD10B534
:100A4000044604F11001C8B2FFF72BFF10BD10B52A
:100A5000044604F11201C8B2FFF723FF10BD10B520
:100A6000044604F11401C8B2FFF71BFF10BD70B5B6
:100A700004460D4604F11201C8B22946FFF7FAFEFA
:100A800070BD2DE9F04104460D46164604F11201F1
:100A9000C8B2FFF706FF0746012E01D12F4301E040
:100AA00006B9AF4304F11201C8B23946FFF7E2FEBE
:100AB000BDE8F081646972206572726F72210D0A5F
:100AC0000000000070752073746174652065727297
:100AD0006F72210D0A000000706F6C617269747989
:100AE000207374617465206572726F72210D0A0043
:100AF00010B56FF0040000F02EF92E4800682E4962
:100B0000B0FBF1F02D4908700846007800EB400179
:100B1000C1EBC0104FF6FF7101EAC0002849088000
:100B200010BD0146254A12784A434FF0E0235A612E
:100B300000229A611A46126942F001021A6100BF4E
:100B40004FF0E022106900F001021AB100F4803287
:100B5000002AF5D04FF0E022126922F001024FF096
:100B6000E0231A6100229A6170470146144A1288F4
:100B70004A434FF0E0235A6100229A611A461269F3
:100B800042F001021A6100BF4FF0E022106900F04C
:100B900001021AB100F48032002AF5D04FF0E022B1
:100BA000126922F001024FF0E0231A6100229A61DB
:100BB000704700000000002000127A00160000209C
:100BC00018000020014600BF704700BF2B4A128862
:100BD00002F04002002AF9D0C2B2284B1B1D1A8035
:100BE000704770B586B004460E461546012144F2A2
:100BF000050000F07DFE4FF40070ADF814000320F6
:100C00008DF8160018208DF8170005A91C4800F073
:100C100021F94FF48060ADF8140004208DF817001E
:100C200005A9174800F016F925208DF800008DF869
:100C300001608DF8025001208DF80300684600F035
:100C400040F801940020ADF80800ADF80A00ADF8B6
:100C50000C00ADF810000C20ADF80E0001A90748FB
:100C600000F089FA012240F22551044800F01BFBF4
:100C70000121024800F00BFB06B070BD00380140B6
:100C80000008014008480047FEE7FEE7FEE7FEE7F0
:100C9000FEE7FEE7FEE7FEE7FEE7FEE7034804495E
:100CA000024A044B70470000ED0000089800002045
:100CB000980200209800002031490143314A116018
:100CC000704770B5002100230F22C47804B32D4C67
:100CD000246804F4E064C4F5E064210AC1F104036B
:100CE000CA40447804FA03F184781440214309018E
:100CF000254C0678A155047804F01F050124AC406A
:100D000005786D11AD0005F1E025C5F8004109E059
:100D1000047804F01F050124AC401C4D06787611C0
:100D200045F8264070BD1A4A0A400243154B1B1F66
:100D30001A60704739B1134A121D12680243114BF1
:100D40001B1D1A6006E00F4A121D126882430D4BEC
:100D50001B1D1A607047042808D14FF0E021096973
:100D600041F004014FF0E022116107E04FF0E02173
:100D7000096921F004014FF0E02211617047000081
:100D80000000FA050CED00E000E400E080E100E086
:100D900080FFFF1F10B50446CC48844208D10121D2
:100DA000042000F0BFFD0021042000F0BBFD46E060
:100DB000C748844208D10121082000F0B3FD00217A
:100DC000082000F0AFFD3AE0C248844208D101217A
:100DD000102000F0A7FD0021102000F0A3FD2EE060
:100DE000BD48844208D10121202000F09BFD002154
:100DF000202000F097FD22E0B848844208D101216C
:100E0000402000F08FFD0021402000F08BFD16E017
:100E1000B348844208D10121802000F083FD0021E5
:100E2000802000F07FFD0AE0AE48844207D1012116
:100E3000801500F077FD0021A01500F073FD10BDB6
:100E400010B50121084600F06DFD0021012000F0E1
:100E500069FD10BD2DE9F041024600250026002065
:100E600000230024002791F803C00CF00F0591F82F
:100E700003C00CF0100CBCF1000F03D091F802C0BD
:100E80004CEA050591F800C0BCF1000F31D01468A0
:100E900000202BE04FF0010C0CFA00F3B1F800C079
:100EA0000CEA03069E4220D183004FF00F0C0CFA8F
:100EB00003F7BC4305FA03FC4CEA040491F803C0B1
:100EC000BCF1280F06D14FF0010C0CFA00FCC2F85F
:100ED00014C00AE091F803C0BCF1480F05D14FF0EF
:100EE000010C0CFA00FCC2F810C0401C0828D1D339
:100EF0001460B1F800C0BCF1FF0F34DD546800206D
:100F00002EE000F1080C4FF0010808FA0CF3B1F8DC
:100F100000C00CEA03069E4221D183004FF00F0C63
:100F20000CFA03F7BC4305FA03FC4CEA040491F8FD
:100F300003C0BCF1280F05D100F1080C08FA0CF829
:100F4000C2F8148091F803C0BCF1480F07D100F13A
:100F5000080C4FF0010808FA0CF8C2F81080401C89
:100F60000828CED35460BDE8F0814FF6FF710180B0
:100F7000022181700421C1707047024600209368ED
:100F80000B400BB1012000E000207047014688684B
:100F900080B2704702460020D3680B400BB101209D
:100FA00000E0002070470146C86880B270470161C8
:100FB0007047416170470AB1016100E041617047CB
:100FC000C16070474FF480320A438261816182615F
:100FD00082698269704702460020434B18684FF6C9
:100FE0008073184040EA021008433F4B1860704776
:100FF0003E49C8617047F0B50A460023002400212D
:10100000002500F00046B6F1004F02D1364EF169DE
:1010100001E0354E7168C0F3034583B200F4401619
:10102000B6F5401F08D121F070612F4E766826F08A
:1010300070662D4F7E6012E000F48016B6F5801FBA
:1010400006D1032606FA05F4A14341F0706106E0DB
:10105000460D360103FA06F6B14341F0706122B144
:10106000460D360103FA06F6314300F00046B6F1AC
:10107000004F02D11C4EF16101E01B4E7160F0BDCA
:1010800030B500228B071C0F0F2303FA04F2164B16
:1010900008338C1053F824309343134C08348D10CC
:1010A00044F8253023468C1053F824308C07240F45
:1010B00000FA04F423430C4C08348D1044F8253016
:1010C00030BD0A49DC31086070470000000801406B
:1010D000000C0140001001400014014000180140C4
:1010E000001C01400020014000000140000020429F
:1010F00010B50446FB48844209D10121880300F061
:1011000011FC00214FF4804000F00CFC32E0F64866
:10111000844209D10121480400F011FC00214FF460
:10112000003000F00CFC25E0F048844209D1012198
:10113000880400F004FC00214FF4802000F0FFFB45
:1011400018E0EB48844209D10121C80400F0F7FB04
:1011500000214FF4002000F0F2FB0BE0E548844250
:1011600008D10121080500F0EAFB00214FF48010AE
:1011700000F0E5FB10BD2DE9F04786B005460E46B0
:101180000024A24600BFA1460027B08900B100BFDD
:101190002F462C8A4CF6FF700440F08804432C82C2
:1011A000AC894EF6F3100440B08831890843718948
:1011B00008430443AC81AC8A4FF6FF400440B08939
:1011C0000443AC8201A800F026FBC648874202D146
:1011D000DDF810A001E0DDF80CA0A88900F40040C3
:1011E00040B10AEBCA0000EB0A1031684900B0FBBD
:1011F000F1F807E00AEBCA0000EB0A103168890039
:10120000B0FBF1F86420B8FBF0F004012009642180
:1012100001FB1089A88900F4004040B1322000EBA6
:10122000C900B0FBF1F000F00700044308E03220F1
:1012300000EB09106421B0FBF1F000F00F00044353
:101240002C8106B0BDE8F0874FF4165101600021F3
:101250008180C18001810C21418100218181704701
:1012600010B502460020108A4FF2FF0318400B8889
:101270004C8823438C882343CC8823431843108213
:1012800010BD0021018041808180C180704721B163
:10129000828942F40052828104E082894DF6FF7314
:1012A0001A4082817047F0B50346002400260025CD
:1012B000002040F66A17B94200D100BF1846C1F3BA
:1012C000421401F01F06012707FA06F5012C01D18F
:1012D0000C3004E0022C01D1103000E014301AB1BF
:1012E00007682F43076002E00768AF430760F0BD5F
:1012F0001AB1838A0B43838202E0838A8B43838201
:101300007047028A4FF6F0731A400282028A0A433B
:101310000282704782894FF2FF731A40828182896C
:101320000A438281704721B1828942F002028281A0
:1013300004E082894FF6FD731A4082817047028A69
:101340004FF6DF731A400282028A0A430282704714
:1013500021B1028A42F48042028204E0028A4BF602
:10136000FF731A4002827047C1F3080282807047FF
:1013700001468888C0F308007047818941F0010167
:1013800081817047028BD2B20283028B42EA012232
:1013900002837047028B02F47F420283028B0A436E
:1013A0000283704721B1828A42F02002828204E0E7
:1013B000828A4FF6DF731A408282704721B1828A97
:1013C00042F01002828204E0828A4FF6EF731A40E4
:1013D0008282704721B1828A42F00802828204E050
:1013E000828A4FF6F7731A408282704721B1828950
:1013F00042F40042828103E08289C2F30E028281BC
:10140000704721B1828A42F40062828204E0828ABB
:101410004FF2FF731A4082827047828A4FF6FB7345
:101420001A408282828A0A438282704721B1828A6C
:1014300042F00202828204E0828A4FF6FD731A4073
:101440008282704702460020B1F5007F00D100BFC4
:1014500013880B400BB1012000E00020704701F41D
:101460000072B2F5007F00D100BFCA43028070470E
:1014700070B50246002400230025002040F66A16BD
:10148000B14200D100BFC1F3421501F01F03012694
:1014900006FA03F3012D02D19689334006E0022DAE
:1014A00002D1168A334001E0968A33400C1201269D
:1014B00006FA04F41688344013B10CB1012000E0A0
:1014C000002070BD10B50022002340F66A14A1422E
:1014D00000D100BF0A1201249440A3B2DC4304806F
:1014E00010BD0000003801400044004000480040AA
:1014F000004C004000500040002044490860091D95
:101500000860091D0860091D086041483F49143101
:101510000860704700213D498279002A3AD00A4686
:10152000126803689A430B461A600A1D1268036822
:101530009A430B1D1A60027911440A6803681A4322
:101540000A60324A0832126803689A432F4B083304
:101550001A601A1D126803689A432C4B0C331A60E8
:101560004279102A0ED11A1F126803681A43274BBA
:1015700008331A601A1D126803681A43234B0C3390
:101580001A600DE02149427911440A6803681A4340
:101590000A6005E0027911440A6803689A430A6008
:1015A00070470021016001710C214171002181719E
:1015B00070471649103109680143144A103211600E
:1015C000704701460020114A143212680A400AB1DD
:1015D000012000E0002070470C491431086070477A
:1015E000014600200022094B1B6803EA0102074B59
:1015F00014331B680B4013B10AB1012000E0002036
:10160000704702491431086070470000000401402F
:10161000FFFF0F00DF48006840F00100DD4908606F
:1016200008464068DC490840DA49486008460068D6
:10163000DA490840D74908600846006820F480204D
:1016400008600846406820F4FE0048604FF41F0020
:1016500088607047CF49096821F48031CD4A116014
:101660001146096821F480211160B0F5803F03D054
:10167000B0F5802F0ED106E0C649096841F48031EB
:10168000C44A116007E0C349096841F4A021C14A76
:10169000116000E000BF00BF704710B50146002296
:1016A000002300204A11012A02D1BA4C236806E027
:1016B000022A02D1B74C236A01E0B64C636A01F0FA
:1016C0001F02012494401C400CB1012000E00020C6
:1016D00010BD38B5002000900024002500BF312047
:1016E000FFF7DBFF05460098401C00900098B0F51E
:1016F000A06F01D0002DF2D03120FFF7CEFF08B14E
:10170000012400E00024204638BD01460020A14A03
:10171000106820F0F80040EAC10010607047A0494E
:1017200008607047024600209A4B586820F47C10ED
:1017300042EA01031843974B58607047984908667E
:10174000704701460020934A506820F00300084388
:10175000506070478F48406800F00C0070470146A9
:1017600000208C4A506820F0F00008435060704719
:1017700001460020874A506820F4E060084350602A
:10178000704701460020834A506820F4605040EAC8
:10179000C1005060704729B17E4A527A02437D4BA6
:1017A0005A7204E07B4A527A82437A4B5A727047EB
:1017B0007B49D8310860704701460020754A50685F
:1017C00020F440400843506070470021714A2032A5
:1017D0001170704A82F82010012802D004280AD122
:1017E00004E001216B4A2032117005E00521694AAD
:1017F0002032117000E000BF00BF704769490860E7
:1018000070476449096A0143624A11627047654939
:1018100044390860704730B50021002200240023BD
:101820005C4D6D6805F00C0121B1042905D0082933
:1018300023D105E05C4D056022E05B4D05601FE0B3
:10184000544D6D6805F47012524D6D6805F4803486
:10185000022505EB92421CB9544D554305600BE03F
:101860004C4D6D6805F400351DB1504D5543056074
:1018700002E04D4D5543056002E04B4D056000BF51
:1018800000BF444D6D6805F0F0010909484D6B5CDF
:101890000568DD4045603F4D6D6805F4E061090A6B
:1018A000434D6B5C4568DD4085603A4D6D6805F4DD
:1018B0006051C90A3E4D6B5C4568DD40C560354DE1
:1018C0006D6805F44041890B3A4D6B5CC568B5FB0A
:1018D000F3F5056130BD29B12E4A526902432D4B03
:1018E0005A6104E02B4A526982432A4B5A6170477D
:1018F00029B1284A92690243264B9A6104E0254A9D
:1019000092698243234B9A61704729B1214AD26977
:101910000243204BDA6104E01E4AD26982431D4B28
:10192000DA61704729B11B4AD2680243194BDA6069
:1019300004E0184AD2688243164BDA60704729B136
:10194000144A12690243134B1A6104E0114A1269E6
:101950008243104B1A617047124940390860704742
:101960000F49C86470470B49C87170470948406AFD
:1019700040F0807007494862704701460020054AE0
:1019800092680A400AB1012000E000207047014936
:1019900088727047001002400000FFF8FFFFF6FE5B
:1019A000000042428004424200127A0000093D00D9
:1019B0002000002030000020704700000FB40449D0
:1019C00010B503AA029800F053F910BC5DF814FB9F
:1019D0001C00002070B5044685690068C10601D569
:1019E000302600E02026C00707D070BDD4E90121D1
:1019F00030469047206A401C20626D1EF6D570BDAF
:101A000070B5044685690078C00707D170BDD4E978
:101A1000012120209047206A401C20626D1EF6D5CF
:101A200070BD000070B504460D4621461068AFF346
:101A300000802188090502D50F4A7A4402E00E4A47
:101A40007A440E32002104F1240305E000F00F0671
:101A50000009965D5E54491C0028F7D120780023C8
:101A6000000704D5702D02D009B10223113220469F
:101A7000BDE8704000F0A2B8000300002DE9F05F5F
:101A8000894604464FF0000ADFF824B1FB44C0F851
:101A900020A02046E168884700287DD0252806D070
:101AA000D4E901219047206A401C2062F1E700251B
:101AB0005F462046E16888472028064607DB312E2E
:101AC00005D2B81910F8200C08B10543F1E7A807B2
:101AD00001D525F00405C4F81CA00027C4F818A0FF
:101AE0002A2E09D0304600F023F938B304EB8708DA
:101AF000303EC8F8186019E059F8041B204604EB82
:101B000087029161E1688847012F064618D1E06994
:101B1000002820DA25F020051DE0D8F8180000EB99
:101B2000800006EB40003038C8F818002046E16815
:101B30008847064600F0FCF80028EED1012F0AD0B5
:101B40002E2E08D12046E16888477F1C0646022FCA
:101B500045F02005C4DBA069002803DA404245F0C7
:101B60000105A061E80701D025F01005A6B1A6F196
:101B70004100192802D8203645F400654A4631460E
:101B8000204625604D46FEF7EBFA60B1012807D0EC
:101B9000ED1D25F0070000E007E000F1080978E7F7
:101BA00005F1040975E730467AE7206ABDE8F09F41
:101BB000D602000070477047704770472DE9F04724
:101BC0000D4699469246044600F1240801688806AD
:101BD00004D5E06921F01001216000E00120A84255
:101BE00001DD471B00E00027A1697A1902EB09001B
:101BF000081AA0612078C00602D42046FFF7EAFE4A
:101C0000002608E0D4E901211AF806009047206A6E
:101C1000401C761C20624E45F4DB2078C0060AD5B5
:101C20002046FFF7D7FE06E0D4E901213020904797
:101C3000206A401C2062381EA7F10107F4DC07E08F
:101C4000D4E9012118F805009047206A401C206261
:101C5000281EA5F10105F3DC2046FFF7D1FE207810
:101C6000000602D50220BDE8F0870120FBE7000056
:101C7000074B70B50D467B4400F011F8044628462A
:101C800000F020F810B14FF0FF3070BD204670BD5D
:101C900051EFFFFF01694A1C02610878704700B5E7
:101CA0008FB0CDE901310021059105497944CDE995
:101CB000031011466846FFF7E1FE0FB000BD0000BB
:101CC000E5FFFFFF007B00F080007047754600F0E5
:101CD0002BF8AE4605006946534620F007008546BE
:101CE00018B020B5FEF7DAFFBDE820404FF000063F
:101CF0004FF000074FF000084FF0000B21F00701F4
:101D0000AC46ACE8C009ACE8C009ACE8C009ACE836
:101D1000C0098D46704710B50446AFF300802046D9
:101D2000BDE81040FEF72EBA00487047340000208E
:101D300030380A2801D20120704700207047303126
:101D400032333435363738394142434445464030E2
:101D50005800303132333435363738396162636494
:101D600065664030780004000008000000000000B4
:101D70000002000100001000981D00080000002073
:101D80003400000028010008CC1D000834000020A9
:101D9000640200004401000800A24A0400000000A0
:101DA000000000000102030406070809000000000B
:101DB0000000000000000000000000000102030419
:0C1DC000010203040607080902040608DB
:04000005080000ED02
:00000001FF
